{
  "_format": "hh3-artifact-1",
  "contractName": "LendingPool",
  "sourceName": "contracts/LendingPool.sol",
  "abi": [
    {
      "inputs": [
        {
          "internalType": "address",
          "name": "_usdt0",
          "type": "address"
        },
        {
          "internalType": "address",
          "name": "_oracle",
          "type": "address"
        },
        {
          "internalType": "uint256",
          "name": "_ltvBps",
          "type": "uint256"
        }
      ],
      "stateMutability": "nonpayable",
      "type": "constructor"
    },
    {
      "inputs": [
        {
          "internalType": "address",
          "name": "owner",
          "type": "address"
        }
      ],
      "name": "OwnableInvalidOwner",
      "type": "error"
    },
    {
      "inputs": [
        {
          "internalType": "address",
          "name": "account",
          "type": "address"
        }
      ],
      "name": "OwnableUnauthorizedAccount",
      "type": "error"
    },
    {
      "inputs": [],
      "name": "ReentrancyGuardReentrantCall",
      "type": "error"
    },
    {
      "inputs": [
        {
          "internalType": "address",
          "name": "token",
          "type": "address"
        }
      ],
      "name": "SafeERC20FailedOperation",
      "type": "error"
    },
    {
      "anonymous": false,
      "inputs": [
        {
          "indexed": true,
          "internalType": "address",
          "name": "user",
          "type": "address"
        },
        {
          "indexed": false,
          "internalType": "uint256",
          "name": "usdt0Amount",
          "type": "uint256"
        }
      ],
      "name": "Borrowed",
      "type": "event"
    },
    {
      "anonymous": false,
      "inputs": [
        {
          "indexed": true,
          "internalType": "address",
          "name": "user",
          "type": "address"
        },
        {
          "indexed": false,
          "internalType": "uint256",
          "name": "rbtcAmount",
          "type": "uint256"
        }
      ],
      "name": "Deposited",
      "type": "event"
    },
    {
      "anonymous": false,
      "inputs": [
        {
          "indexed": false,
          "internalType": "uint256",
          "name": "newLtvBps",
          "type": "uint256"
        }
      ],
      "name": "LtvUpdated",
      "type": "event"
    },
    {
      "anonymous": false,
      "inputs": [
        {
          "indexed": true,
          "internalType": "address",
          "name": "newOracle",
          "type": "address"
        }
      ],
      "name": "OracleUpdated",
      "type": "event"
    },
    {
      "anonymous": false,
      "inputs": [
        {
          "indexed": true,
          "internalType": "address",
          "name": "previousOwner",
          "type": "address"
        },
        {
          "indexed": true,
          "internalType": "address",
          "name": "newOwner",
          "type": "address"
        }
      ],
      "name": "OwnershipTransferred",
      "type": "event"
    },
    {
      "anonymous": false,
      "inputs": [
        {
          "indexed": true,
          "internalType": "address",
          "name": "user",
          "type": "address"
        },
        {
          "indexed": false,
          "internalType": "uint256",
          "name": "usdt0Amount",
          "type": "uint256"
        }
      ],
      "name": "Repaid",
      "type": "event"
    },
    {
      "anonymous": false,
      "inputs": [
        {
          "indexed": true,
          "internalType": "address",
          "name": "user",
          "type": "address"
        },
        {
          "indexed": false,
          "internalType": "uint256",
          "name": "rbtcAmount",
          "type": "uint256"
        }
      ],
      "name": "Withdrawn",
      "type": "event"
    },
    {
      "inputs": [],
      "name": "RBTC_ASSET",
      "outputs": [
        {
          "internalType": "address",
          "name": "",
          "type": "address"
        }
      ],
      "stateMutability": "view",
      "type": "function"
    },
    {
      "inputs": [],
      "name": "USDT0_SCALE",
      "outputs": [
        {
          "internalType": "uint256",
          "name": "",
          "type": "uint256"
        }
      ],
      "stateMutability": "view",
      "type": "function"
    },
    {
      "inputs": [
        {
          "internalType": "uint256",
          "name": "amount",
          "type": "uint256"
        }
      ],
      "name": "borrowUSDT0",
      "outputs": [],
      "stateMutability": "nonpayable",
      "type": "function"
    },
    {
      "inputs": [
        {
          "internalType": "address",
          "name": "",
          "type": "address"
        }
      ],
      "name": "collateralRBTC",
      "outputs": [
        {
          "internalType": "uint256",
          "name": "",
          "type": "uint256"
        }
      ],
      "stateMutability": "view",
      "type": "function"
    },
    {
      "inputs": [
        {
          "internalType": "address",
          "name": "user",
          "type": "address"
        }
      ],
      "name": "collateralUsdE18",
      "outputs": [
        {
          "internalType": "uint256",
          "name": "",
          "type": "uint256"
        }
      ],
      "stateMutability": "view",
      "type": "function"
    },
    {
      "inputs": [
        {
          "internalType": "address",
          "name": "",
          "type": "address"
        }
      ],
      "name": "debtUSDT0",
      "outputs": [
        {
          "internalType": "uint256",
          "name": "",
          "type": "uint256"
        }
      ],
      "stateMutability": "view",
      "type": "function"
    },
    {
      "inputs": [
        {
          "internalType": "address",
          "name": "user",
          "type": "address"
        }
      ],
      "name": "debtUsdE18",
      "outputs": [
        {
          "internalType": "uint256",
          "name": "",
          "type": "uint256"
        }
      ],
      "stateMutability": "view",
      "type": "function"
    },
    {
      "inputs": [],
      "name": "depositRBTC",
      "outputs": [],
      "stateMutability": "payable",
      "type": "function"
    },
    {
      "inputs": [
        {
          "internalType": "address",
          "name": "user",
          "type": "address"
        }
      ],
      "name": "getAccountData",
      "outputs": [
        {
          "internalType": "uint256",
          "name": "collRbtcWei",
          "type": "uint256"
        },
        {
          "internalType": "uint256",
          "name": "debtUsdt0",
          "type": "uint256"
        },
        {
          "internalType": "uint256",
          "name": "collUsdE18",
          "type": "uint256"
        },
        {
          "internalType": "uint256",
          "name": "debtUsdE18_",
          "type": "uint256"
        },
        {
          "internalType": "uint256",
          "name": "maxDebtUsdE18_",
          "type": "uint256"
        },
        {
          "internalType": "uint256",
          "name": "healthFactorE18_",
          "type": "uint256"
        }
      ],
      "stateMutability": "view",
      "type": "function"
    },
    {
      "inputs": [
        {
          "internalType": "address",
          "name": "user",
          "type": "address"
        }
      ],
      "name": "healthFactorE18",
      "outputs": [
        {
          "internalType": "uint256",
          "name": "",
          "type": "uint256"
        }
      ],
      "stateMutability": "view",
      "type": "function"
    },
    {
      "inputs": [],
      "name": "ltvBps",
      "outputs": [
        {
          "internalType": "uint256",
          "name": "",
          "type": "uint256"
        }
      ],
      "stateMutability": "view",
      "type": "function"
    },
    {
      "inputs": [
        {
          "internalType": "address",
          "name": "user",
          "type": "address"
        }
      ],
      "name": "maxBorrowableUsdE18",
      "outputs": [
        {
          "internalType": "uint256",
          "name": "",
          "type": "uint256"
        }
      ],
      "stateMutability": "view",
      "type": "function"
    },
    {
      "inputs": [],
      "name": "oracle",
      "outputs": [
        {
          "internalType": "contract IPriceOracle",
          "name": "",
          "type": "address"
        }
      ],
      "stateMutability": "view",
      "type": "function"
    },
    {
      "inputs": [],
      "name": "owner",
      "outputs": [
        {
          "internalType": "address",
          "name": "",
          "type": "address"
        }
      ],
      "stateMutability": "view",
      "type": "function"
    },
    {
      "inputs": [],
      "name": "renounceOwnership",
      "outputs": [],
      "stateMutability": "nonpayable",
      "type": "function"
    },
    {
      "inputs": [
        {
          "internalType": "uint256",
          "name": "amount",
          "type": "uint256"
        }
      ],
      "name": "repayUSDT0",
      "outputs": [],
      "stateMutability": "nonpayable",
      "type": "function"
    },
    {
      "inputs": [
        {
          "internalType": "uint256",
          "name": "_ltvBps",
          "type": "uint256"
        }
      ],
      "name": "setLtvBps",
      "outputs": [],
      "stateMutability": "nonpayable",
      "type": "function"
    },
    {
      "inputs": [
        {
          "internalType": "address",
          "name": "_oracle",
          "type": "address"
        }
      ],
      "name": "setOracle",
      "outputs": [],
      "stateMutability": "nonpayable",
      "type": "function"
    },
    {
      "inputs": [
        {
          "internalType": "address",
          "name": "newOwner",
          "type": "address"
        }
      ],
      "name": "transferOwnership",
      "outputs": [],
      "stateMutability": "nonpayable",
      "type": "function"
    },
    {
      "inputs": [],
      "name": "usdt0",
      "outputs": [
        {
          "internalType": "contract IERC20",
          "name": "",
          "type": "address"
        }
      ],
      "stateMutability": "view",
      "type": "function"
    },
    {
      "inputs": [
        {
          "internalType": "uint256",
          "name": "amountWei",
          "type": "uint256"
        }
      ],
      "name": "withdrawRBTC",
      "outputs": [],
      "stateMutability": "nonpayable",
      "type": "function"
    },
    {
      "stateMutability": "payable",
      "type": "receive"
    }
  ],
  "bytecode": "0x60c060405234801561000f575f5ffd5b5060405161158d38038061158d83398101604081905261002e9161023f565b338061005457604051631e4fbdf760e01b81525f60048201526024015b60405180910390fd5b61005d816101d5565b50600180556001600160a01b0383166100a25760405162461bcd60e51b8152602060048201526007602482015266055534454305f360cc1b604482015260640161004b565b6001600160a01b0382166100e35760405162461bcd60e51b815260206004820152600860248201526704f5241434c455f360c41b604482015260640161004b565b5f811180156100f4575061251c8111155b61012c5760405162461bcd60e51b81526020600482015260096024820152684c54565f52414e474560b81b604482015260640161004b565b6001600160a01b038381166080819052600280546001600160a01b0319169285169290921790915560038290556040805163313ce56760e01b815290515f929163313ce5679160048083019260209291908290030181865afa158015610194573d5f5f3e3d5ffd5b505050506040513d601f19601f820116820180604052508101906101b89190610278565b90506101c860ff8216600a610398565b60a052506103a392505050565b5f80546001600160a01b038381166001600160a01b0319831681178455604051919092169283917f8be0079c531659141344cd1fd0a4f28419497f9722a3daafe3b4186f6b6457e09190a35050565b80516001600160a01b038116811461023a575f5ffd5b919050565b5f5f5f60608486031215610251575f5ffd5b61025a84610224565b925061026860208501610224565b9150604084015190509250925092565b5f60208284031215610288575f5ffd5b815160ff81168114610298575f5ffd5b9392505050565b634e487b7160e01b5f52601160045260245ffd5b6001815b60018411156102ee578085048111156102d2576102d261029f565b60018416156102e057908102905b60019390931c9280026102b7565b935093915050565b5f8261030457506001610392565b8161031057505f610392565b816001811461032657600281146103305761034c565b6001915050610392565b60ff8411156103415761034161029f565b50506001821b610392565b5060208310610133831016604e8410600b841016171561036f575081810a610392565b61037b5f1984846102b3565b805f190482111561038e5761038e61029f565b0290505b92915050565b5f61029883836102f6565b60805160a05161119f6103ee5f395f8181610290015281816106360152610f3601525f818161037a015281816105a7015281816107f301528181610ca80152610e9a015261119f5ff3fe608060405260043610610129575f3560e01c80637e67a16c116100a8578063afe37e101161006d578063afe37e101461039c578063c4658b43146103bb578063cf461093146103da578063dafbf7ea146103f9578063e64091df14610418578063f2fde38b14610443575f5ffd5b80637e67a16c146102f05780638d75621d1461030f5780638da5cb5b1461032e578063a92ccdea1461034a578063a9d3c87f14610369575f5ffd5b806362a45343116100ee57806362a453431461024c578063715018a61461026b57806372ac4d9b1461027f5780637adbf973146102b25780637dc0d1d0146102d1575f5ffd5b806323a6ac111461017857806324bb2891146101b6578063276b7377146101c0578063408ba4ca146101d55780635d78650e14610200575f5ffd5b366101745760405162461bcd60e51b81526020600482015260166024820152751112549150d517d4105657d393d517d0531313d5d15160521b60448201526064015b60405180910390fd5b5f5ffd5b348015610183575f5ffd5b506101a36101923660046110a5565b60056020525f908152604090205481565b6040519081526020015b60405180910390f35b6101be610462565b005b3480156101cb575f5ffd5b506101a360035481565b3480156101e0575f5ffd5b506101e85f81565b6040516001600160a01b0390911681526020016101ad565b34801561020b575f5ffd5b5061021f61021a3660046110a5565b61050b565b604080519687526020870195909552938501929092526060840152608083015260a082015260c0016101ad565b348015610257575f5ffd5b506101a36102663660046110a5565b610568565b348015610276575f5ffd5b506101be610672565b34801561028a575f5ffd5b506101a37f000000000000000000000000000000000000000000000000000000000000000081565b3480156102bd575f5ffd5b506101be6102cc3660046110a5565b610683565b3480156102dc575f5ffd5b506002546101e8906001600160a01b031681565b3480156102fb575f5ffd5b506101be61030a3660046110cb565b610715565b34801561031a575f5ffd5b506101a36103293660046110a5565b610864565b348015610339575f5ffd5b505f546001600160a01b03166101e8565b348015610355575f5ffd5b506101a36103643660046110a5565b6108b2565b348015610374575f5ffd5b506101e87f000000000000000000000000000000000000000000000000000000000000000081565b3480156103a7575f5ffd5b506101a36103b63660046110a5565b6108dc565b3480156103c6575f5ffd5b506101be6103d53660046110cb565b61099c565b3480156103e5575f5ffd5b506101be6103f43660046110cb565b610b73565b348015610404575f5ffd5b506101be6104133660046110cb565b610bff565b348015610423575f5ffd5b506101a36104323660046110a5565b60046020525f908152604090205481565b34801561044e575f5ffd5b506101be61045d3660046110a5565b610d32565b61046a610d6c565b5f34116104a85760405162461bcd60e51b815260206004820152600c60248201526b16915493d7d1115413d4d25560a21b604482015260640161016b565b335f90815260046020526040812080543492906104c69084906110f6565b909155505060405134815233907f2da466a7b24304f47e87fa2e1e5a81b9831ce54fec19055ce277ca2f39ba42c49060200160405180910390a261050960018055565b565b6001600160a01b0381165f908152600460209081526040808320546005909252822054909180808061053c876108dc565b935061054787610568565b9250610552876108b2565b915061055d87610864565b905091939550919395565b6001600160a01b0381165f90815260056020526040812054810361058d57505f919050565b6002546040516341976e0960e01b81526001600160a01b037f0000000000000000000000000000000000000000000000000000000000000000811660048301525f9216906341976e0990602401602060405180830381865afa1580156105f5573d5f5f3e3d5ffd5b505050506040513d601f19601f820116820180604052508101906106199190611109565b6001600160a01b0384165f908152600560205260409020549091507f000000000000000000000000000000000000000000000000000000000000000090610661908390611120565b61066b9190611137565b9392505050565b61067a610d96565b6105095f610dc2565b61068b610d96565b6001600160a01b0381166106cc5760405162461bcd60e51b815260206004820152600860248201526704f5241434c455f360c41b604482015260640161016b565b600280546001600160a01b0319166001600160a01b0383169081179091556040517f3df77beb5db05fcdd70a30fc8adf3f83f9501b68579455adbd100b8180940394905f90a250565b61071d610d6c565b5f811161075a5760405162461bcd60e51b815260206004820152600b60248201526a5a45524f5f424f52524f5760a81b604482015260640161016b565b335f908152600560205260408120546107749083906110f6565b335f908152600460205260409020549091506107909082610e11565b6107dc5760405162461bcd60e51b815260206004820152601760248201527f494e53554646494349454e545f434f4c4c41544552414c000000000000000000604482015260640161016b565b335f818152600560205260409020829055610822907f00000000000000000000000000000000000000000000000000000000000000006001600160a01b03169084610f96565b60405182815233907fac59582e5396aca512fa873a2047e7f4c80f8f55d4a06cb34a78a0187f62719f9060200160405180910390a25061086160018055565b50565b5f5f61086f83610568565b9050805f0361088157505f1992915050565b5f61088b846108b2565b9050816108a082670de0b6b3a7640000611120565b6108aa9190611137565b949350505050565b5f6127106003546108c2846108dc565b6108cc9190611120565b6108d69190611137565b92915050565b6001600160a01b0381165f90815260046020526040812054810361090157505f919050565b6002546040516341976e0960e01b81525f60048201819052916001600160a01b0316906341976e0990602401602060405180830381865afa158015610948573d5f5f3e3d5ffd5b505050506040513d601f19601f8201168201806040525081019061096c9190611109565b6001600160a01b0384165f90815260046020526040902054909150670de0b6b3a764000090610661908390611120565b6109a4610d6c565b5f81116109e35760405162461bcd60e51b815260206004820152600d60248201526c5a45524f5f574954484452415760981b604482015260640161016b565b335f9081526004602052604090205480821115610a425760405162461bcd60e51b815260206004820152601b60248201527f494e53554646494349454e545f434f4c4c41544552414c5f42414c0000000000604482015260640161016b565b5f610a4d8383611156565b335f90815260056020526040902054909150610a6a908290610e11565b610aa05760405162461bcd60e51b815260206004820152600760248201526648465f4c545f3160c81b604482015260640161016b565b335f818152600460205260408082208490555190919085908381818185875af1925050503d805f8114610aee576040519150601f19603f3d011682016040523d82523d5f602084013e610af3565b606091505b5050905080610b325760405162461bcd60e51b815260206004820152600b60248201526a14d1539117d1905253115160aa1b604482015260640161016b565b60405184815233907f7084f5476618d8e60b11ef0d7d3f06914655adb8793e28ff7f018d4c76d505d59060200160405180910390a250505061086160018055565b610b7b610d96565b5f81118015610b8c575061251c8111155b610bc45760405162461bcd60e51b81526020600482015260096024820152684c54565f52414e474560b81b604482015260640161016b565b60038190556040518181527fcce25c35b561657fb7cd2ac403c6a4854283d0f4d462e68e0f97d07c348bcff29060200160405180910390a150565b610c07610d6c565b335f9081526005602052604090205480610c4d5760405162461bcd60e51b81526020600482015260076024820152661393d7d111509560ca1b604482015260640161016b565b5f818311610c5b5782610c5d565b815b90505f8111610c9b5760405162461bcd60e51b815260206004820152600a6024820152695a45524f5f524550415960b01b604482015260640161016b565b610cd06001600160a01b037f000000000000000000000000000000000000000000000000000000000000000016333084610ffa565b610cda8183611156565b335f81815260056020526040908190209290925590517f0516911bcc3a0a7412a44601057c0a0a1ec628bde049a84284bc42886653448890610d1f9084815260200190565b60405180910390a2505061086160018055565b610d3a610d96565b6001600160a01b038116610d6357604051631e4fbdf760e01b81525f600482015260240161016b565b61086181610dc2565b600260015403610d8f57604051633ee5aeb560e01b815260040160405180910390fd5b6002600155565b5f546001600160a01b031633146105095760405163118cdaa760e01b815233600482015260240161016b565b5f80546001600160a01b038381166001600160a01b0319831681178455604051919092169283917f8be0079c531659141344cd1fd0a4f28419497f9722a3daafe3b4186f6b6457e09190a35050565b6002546040516341976e0960e01b81525f600482018190529182916001600160a01b03909116906341976e0990602401602060405180830381865afa158015610e5c573d5f5f3e3d5ffd5b505050506040513d601f19601f82011682018060405250810190610e809190611109565b6002546040516341976e0960e01b81526001600160a01b037f0000000000000000000000000000000000000000000000000000000000000000811660048301529293505f92909116906341976e0990602401602060405180830381865afa158015610eed573d5f5f3e3d5ffd5b505050506040513d601f19601f82011682018060405250810190610f119190611109565b90505f670de0b6b3a7640000610f278488611120565b610f319190611137565b90505f7f0000000000000000000000000000000000000000000000000000000000000000610f5f8488611120565b610f699190611137565b90505f61271060035484610f7d9190611120565b610f879190611137565b90911115979650505050505050565b6040516001600160a01b03838116602483015260448201839052610ff591859182169063a9059cbb906064015b604051602081830303815290604052915060e01b6020820180516001600160e01b038381831617835250505050611039565b505050565b6040516001600160a01b0384811660248301528381166044830152606482018390526110339186918216906323b872dd90608401610fc3565b50505050565b5f5f60205f8451602086015f885af180611058576040513d5f823e3d81fd5b50505f513d9150811561106f57806001141561107c565b6001600160a01b0384163b155b1561103357604051635274afe760e01b81526001600160a01b038516600482015260240161016b565b5f602082840312156110b5575f5ffd5b81356001600160a01b038116811461066b575f5ffd5b5f602082840312156110db575f5ffd5b5035919050565b634e487b7160e01b5f52601160045260245ffd5b808201808211156108d6576108d66110e2565b5f60208284031215611119575f5ffd5b5051919050565b80820281158282048414176108d6576108d66110e2565b5f8261115157634e487b7160e01b5f52601260045260245ffd5b500490565b818103818111156108d6576108d66110e256fea264697066735822122049e4b09782388d01cd8b03fb1a2c72e1f45129c59b2640916a7af53ac5e81d5964736f6c634300081c0033",
  "linkReferences": {},
  "deployedLinkReferences": {},
  "immutableReferences": {
    "949": [
      {
        "length": 32,
        "start": 890
      },
      {
        "length": 32,
        "start": 1447
      },
      {
        "length": 32,
        "start": 2035
      },
      {
        "length": 32,
        "start": 3240
      },
      {
        "length": 32,
        "start": 3738
      }
    ],
    "954": [
      {
        "length": 32,
        "start": 656
      },
      {
        "length": 32,
        "start": 1590
      },
      {
        "length": 32,
        "start": 3894
      }
    ]
  },
  "inputSourceName": "project/contracts/LendingPool.sol",
  "buildInfoId": "solc-0_8_28-c9f2a516f06cdbc9af223feeb01faf578e0d53bd"
}