{
  "_format": "hh3-artifact-1",
  "contractName": "UmbrellaOracleAdapter",
  "sourceName": "contracts/oracles/UmbrellaOracleAdapter.sol",
  "abi": [
    {
      "inputs": [],
      "stateMutability": "nonpayable",
      "type": "constructor"
    },
    {
      "inputs": [
        {
          "internalType": "address",
          "name": "owner",
          "type": "address"
        }
      ],
      "name": "OwnableInvalidOwner",
      "type": "error"
    },
    {
      "inputs": [
        {
          "internalType": "address",
          "name": "account",
          "type": "address"
        }
      ],
      "name": "OwnableUnauthorizedAccount",
      "type": "error"
    },
    {
      "anonymous": false,
      "inputs": [
        {
          "indexed": true,
          "internalType": "address",
          "name": "previousOwner",
          "type": "address"
        },
        {
          "indexed": true,
          "internalType": "address",
          "name": "newOwner",
          "type": "address"
        }
      ],
      "name": "OwnershipTransferred",
      "type": "event"
    },
    {
      "anonymous": false,
      "inputs": [
        {
          "indexed": true,
          "internalType": "address",
          "name": "asset",
          "type": "address"
        },
        {
          "indexed": false,
          "internalType": "uint256",
          "name": "priceE18",
          "type": "uint256"
        }
      ],
      "name": "PriceUpdated",
      "type": "event"
    },
    {
      "inputs": [
        {
          "internalType": "address",
          "name": "asset",
          "type": "address"
        }
      ],
      "name": "getPrice",
      "outputs": [
        {
          "internalType": "uint256",
          "name": "priceE18",
          "type": "uint256"
        }
      ],
      "stateMutability": "view",
      "type": "function"
    },
    {
      "inputs": [],
      "name": "owner",
      "outputs": [
        {
          "internalType": "address",
          "name": "",
          "type": "address"
        }
      ],
      "stateMutability": "view",
      "type": "function"
    },
    {
      "inputs": [
        {
          "internalType": "address",
          "name": "",
          "type": "address"
        }
      ],
      "name": "pricesE18",
      "outputs": [
        {
          "internalType": "uint256",
          "name": "",
          "type": "uint256"
        }
      ],
      "stateMutability": "view",
      "type": "function"
    },
    {
      "inputs": [],
      "name": "renounceOwnership",
      "outputs": [],
      "stateMutability": "nonpayable",
      "type": "function"
    },
    {
      "inputs": [
        {
          "internalType": "address[]",
          "name": "assets",
          "type": "address[]"
        },
        {
          "internalType": "uint256[]",
          "name": "prices",
          "type": "uint256[]"
        }
      ],
      "name": "setBatch",
      "outputs": [],
      "stateMutability": "nonpayable",
      "type": "function"
    },
    {
      "inputs": [
        {
          "internalType": "address",
          "name": "asset",
          "type": "address"
        },
        {
          "internalType": "uint256",
          "name": "priceE18",
          "type": "uint256"
        }
      ],
      "name": "setPriceE18",
      "outputs": [],
      "stateMutability": "nonpayable",
      "type": "function"
    },
    {
      "inputs": [
        {
          "internalType": "address",
          "name": "newOwner",
          "type": "address"
        }
      ],
      "name": "transferOwnership",
      "outputs": [],
      "stateMutability": "nonpayable",
      "type": "function"
    }
  ],
  "bytecode": "0x6080604052348015600e575f5ffd5b503380603357604051631e4fbdf760e01b81525f600482015260240160405180910390fd5b603a81603f565b50608e565b5f80546001600160a01b038381166001600160a01b0319831681178455604051919092169283917f8be0079c531659141344cd1fd0a4f28419497f9722a3daafe3b4186f6b6457e09190a35050565b6106358061009b5f395ff3fe608060405234801561000f575f5ffd5b506004361061007a575f3560e01c8063715018a611610058578063715018a6146100d85780638da5cb5b146100e0578063d32b95e6146100fa578063f2fde38b1461010d575f5ffd5b80633771c3101461007e57806341976e091461009357806350aaea43146100b9575b5f5ffd5b61009161008c3660046104ef565b610120565b005b6100a66100a1366004610517565b61021e565b6040519081526020015b60405180910390f35b6100a66100c7366004610517565b60016020525f908152604090205481565b610091610278565b5f546040516001600160a01b0390911681526020016100b0565b61009161010836600461057f565b61028b565b61009161011b366004610517565b610421565b61012861045e565b6001600160a01b03821615158061014657506001600160a01b038216155b6101875760405162461bcd60e51b815260206004820152600d60248201526c1a5b9d985b1a5908185cdcd95d609a1b60448201526064015b60405180910390fd5b5f81116101c65760405162461bcd60e51b815260206004820152600d60248201526c696e76616c696420707269636560981b604482015260640161017e565b6001600160a01b0382165f8181526001602052604090819020839055517f0d86730737b142fc160892fa8a0f2db687a92a0e294d1ad70624cf5acef03b84906102129084815260200190565b60405180910390a25050565b6001600160a01b0381165f90815260016020526040902054806102735760405162461bcd60e51b815260206004820152600d60248201526c14149250d157d393d517d4d155609a1b604482015260640161017e565b919050565b61028061045e565b6102895f61048a565b565b61029361045e565b8281146102d45760405162461bcd60e51b815260206004820152600f60248201526e0d8cadccee8d040dad2e6dac2e8c6d608b1b604482015260640161017e565b5f5b8381101561041a575f8383838181106102f1576102f16105eb565b90506020020135116103355760405162461bcd60e51b815260206004820152600d60248201526c696e76616c696420707269636560981b604482015260640161017e565b828282818110610347576103476105eb565b9050602002013560015f878785818110610363576103636105eb565b90506020020160208101906103789190610517565b6001600160a01b0316815260208101919091526040015f20558484828181106103a3576103a36105eb565b90506020020160208101906103b89190610517565b6001600160a01b03167f0d86730737b142fc160892fa8a0f2db687a92a0e294d1ad70624cf5acef03b848484848181106103f4576103f46105eb565b9050602002013560405161040a91815260200190565b60405180910390a26001016102d6565b5050505050565b61042961045e565b6001600160a01b03811661045257604051631e4fbdf760e01b81525f600482015260240161017e565b61045b8161048a565b50565b5f546001600160a01b031633146102895760405163118cdaa760e01b815233600482015260240161017e565b5f80546001600160a01b038381166001600160a01b0319831681178455604051919092169283917f8be0079c531659141344cd1fd0a4f28419497f9722a3daafe3b4186f6b6457e09190a35050565b80356001600160a01b0381168114610273575f5ffd5b5f5f60408385031215610500575f5ffd5b610509836104d9565b946020939093013593505050565b5f60208284031215610527575f5ffd5b610530826104d9565b9392505050565b5f5f83601f840112610547575f5ffd5b50813567ffffffffffffffff81111561055e575f5ffd5b6020830191508360208260051b8501011115610578575f5ffd5b9250929050565b5f5f5f5f60408587031215610592575f5ffd5b843567ffffffffffffffff8111156105a8575f5ffd5b6105b487828801610537565b909550935050602085013567ffffffffffffffff8111156105d3575f5ffd5b6105df87828801610537565b95989497509550505050565b634e487b7160e01b5f52603260045260245ffdfea264697066735822122019863b726dc7169d5954c3095527dc61f3ae314d21316fb2df1e5903ab804be564736f6c634300081c0033",
  "linkReferences": {},
  "deployedLinkReferences": {},
  "immutableReferences": {},
  "inputSourceName": "project/contracts/oracles/UmbrellaOracleAdapter.sol",
  "buildInfoId": "solc-0_8_28-47780f595bde8d9f19a5a14e0a5ab19265db265c"
}